{
  "contractName": "DeepfakeVerifier",
  "abi": [
    {
      "inputs": [
        {
          "internalType": "address",
          "name": "",
          "type": "address"
        }
      ],
      "name": "verifications",
      "outputs": [
        {
          "internalType": "bool",
          "name": "",
          "type": "bool"
        }
      ],
      "stateMutability": "view",
      "type": "function"
    },
    {
      "inputs": [
        {
          "internalType": "bool",
          "name": "isDeepfake",
          "type": "bool"
        }
      ],
      "name": "verifyContent",
      "outputs": [],
      "stateMutability": "nonpayable",
      "type": "function"
    }
  ],
  "bytecode": "0x608060405234801561000f575f80fd5b5061023d8061001d5f395ff3fe608060405234801561000f575f80fd5b5060043610610034575f3560e01c8063080c98da14610038578063beed75ac14610068575b5f80fd5b610052600480360381019061004d9190610154565b610084565b60405161005f9190610199565b60405180910390f35b610082600480360381019061007d91906101dc565b6100a0565b005b5f602052805f5260405f205f915054906101000a900460ff1681565b805f803373ffffffffffffffffffffffffffffffffffffffff1673ffffffffffffffffffffffffffffffffffffffff1681526020019081526020015f205f6101000a81548160ff02191690831515021790555050565b5f80fd5b5f73ffffffffffffffffffffffffffffffffffffffff82169050919050565b5f610123826100fa565b9050919050565b61013381610119565b811461013d575f80fd5b50565b5f8135905061014e8161012a565b92915050565b5f60208284031215610169576101686100f6565b5b5f61017684828501610140565b91505092915050565b5f8115159050919050565b6101938161017f565b82525050565b5f6020820190506101ac5f83018461018a565b92915050565b6101bb8161017f565b81146101c5575f80fd5b50565b5f813590506101d6816101b2565b92915050565b5f602082840312156101f1576101f06100f6565b5b5f6101fe848285016101c8565b9150509291505056fea2646970667358221220a1c890ee6f779f6b317f180131f6788f16220158f760ca74667095a90da474c964736f6c63430008150033",
  "immutableReferences": {},
  "source": "// SPDX-License-Identifier: MIT\r\npragma solidity ^0.8.0;\r\n\r\ncontract DeepfakeVerifier {\r\n    mapping(address => bool) public verifications;\r\n\r\n    function verifyContent(bool isDeepfake) public {\r\n        verifications[msg.sender] = isDeepfake;\r\n    }\r\n}\r\n",
  "sourcePath": "C:\\Users\\forna\\OneDrive\\Desktop\\Deepfake\\DEEPFAKE\\contracts\\DeepfakeVerifier.sol",
  "compiler": {
    "name": "solc",
    "version": "0.8.21+commit.d9974bed.Emscripten.clang"
  },
  "schemaVersion": "3.4.16",
  "updatedAt": "2024-09-02T15:39:32.085Z",
  "devdoc": {
    "kind": "dev",
    "methods": {},
    "version": 1
  },
  "userdoc": {
    "kind": "user",
    "methods": {},
    "version": 1
  }
}